:100000000C940D010C9435010C9435010C940709E6
:100010000C9407090C9407090C9435010C943501D4
:100020000C9435010C9435010C9435010C94350178
:100030000C9435010C9435010C9435010C94350168
:100040000C949E070C9435010C946C070C94460795
:100050000C9435010C9435010C9435010C94350148
:100060000C94E8070C94350108000000BE92244966
:10007000123EABAAAA2ABECDCCCC4C3E00000080DA
:10008000BEABAAAAAA3E00000000BF000000803F4D
:100090000000000000084178D3BB4387D1133D190D
:1000A0000E3CC3BD4282AD2B3E68EC8276BED98F3A
:1000B000E1A93E4C80EFFFBE01C4FF7F3F0000007E
:1000C000000000407A10F35A00A0724E1809001088
:1000D000A5D4E80000E87648170000E40B540200BD
:1000E00000CA9A3B000000E1F505000080969800E8
:1000F000000040420F000000A08601000000102711
:1001000000000000E80300000000640000000000A0
:100110000A00000000000100000000002C76D888D2
:10012000DC674F0823DFC1DFAE59E1B1B796E5E3E5
:10013000E453C63AE651997696E8E6C28426EB89FE
:100140008C9B62ED407C6FFCEFBC9C9F40F2BAA59B
:100150006FA5F490055A2AF75C936B6CF9676DC133
:100160001BFCE0E40D47FEF520E6B500D0ED902E37
:100170000300943577050080841E080000204E0A95
:10018000000000C80C333333330F986E12831141D3
:10019000EF8D2114893BE65516CFFEE6DB18D1849E
:1001A0004B381BF77C1D901DA4BBE42420328472C5
:1001B0005E228100C9F124ECA1E53D27000000008A
:1001C000240027002A0000000008000201000003AC
:1001D00004070000000000000000000000002300F1
:1001E0002600290000000000250028002B00040440
:1001F00004040404040402020202020203030303CF
:1002000003030102040810204080010204081020AA
:100210000102040810207F09C11011241FBECFEF76
:10022000D8E0DEBFCDBF24E0AAE0B3E001C01D925C
:10023000A43FB207E1F713E0A0E0B1E0E6E2F1E3AA
:1002400002C005900D92AA30B107D9F711E0CCE0B9
:10025000D1E004C02197FE010E947416CB30D10773
:10026000C9F70E946A0A0C9486180C94000080E476
:1002700080937C0080917A00806480937A008091E2
:100280007A0086FDFCCF80917800909179000895E6
:10029000089508950895DB0114964D915C9115978A
:1002A0006D917C91DC01ED91FC910280F381E02D58
:1002B0000994AF92BF92CF92DF92EF92FF920F9389
:1002C0001F93CF93DF936C017B018B01040F151FEC
:1002D000EB015E01AE18BF08C017D10759F0699154
:1002E000D601ED91FC910190F081E02DC6010995B8
:1002F000892B79F7C501DF91CF911F910F91FF9065
:10030000EF90DF90CF90BF90AF900895FC01538D98
:10031000448D252F30E0842F90E0821B930B5417DF
:1003200010F0CF96089501970895FC01918D828D6C
:10033000981761F0A28DAE0FBF2FB11D5D968C9105
:10034000928D9F5F9F73928F90E008958FEF9FEF44
:1003500008952FB7F89480910C0490910D04A0910A
:100360000E04B0910F042FBF8093180490931904CA
:10037000A0931A04B0931B0480E194E00E949501BD
:1003800097FF26C02FB7F89480910C0490910D042C
:10039000A0910E04B0910F042FBF4091180450910A
:1003A000190460911A0470911B04841B950BA60B11
:1003B000B70B40911404509115046091160470918C
:1003C000170484179507A607B707B0F28FEF9FEFC2
:1003D0000895FC01918D828D981731F0828DE80F80
:1003E000F11D858D90E008958FEF9FEF0895FC013A
:1003F000918D228D892F90E0805C9F4F821B910907
:100400008F739927089580E194E00E94F70121E01D
:10041000892B09F420E0822F089580E090E0892B59
:1004200029F00E94030281110C9400000895FC0140
:10043000A48DA80FB92FB11DA35ABF4F2C91848D45
:1004400090E001968F739927848FA689B7892C93A2
:10045000A089B1898C91837080648C93938D848DF5
:10046000981306C00288F389E02D80818F7D8083F8
:100470000895EF92FF920F931F93CF93DF93EC01B8
:1004800081E0888F9B8D8C8D98131AC0E889F9893B
:10049000808185FF15C09FB7F894EE89FF8960833E
:1004A000E889F98980818370806480839FBF81E0BF
:1004B00090E0DF91CF911F910F91FF90EF90089501
:1004C000F62E0B8D10E00F5F1F4F0F731127E02EDC
:1004D0008C8D8E110CC00FB607FCFACFE889F98914
:1004E000808185FFF5CFCE010E941702F1CFEB8D01
:1004F000EC0FFD2FF11DE35AFF4FF0829FB7F894E8
:100500000B8FEA89FB8980818062CFCFCF93DF9305
:10051000EC01888D8823B9F0AA89BB89E889F9891B
:100520008C9185FD03C0808186FD0DC00FB607FC50
:10053000F7CF8C9185FFF2CF808185FFEDCFCE0183
:100540000E941702E9CFDF91CF91089590E0FC015E
:10055000EA53FE4F2491FC01EE5FFD4F3491FC0104
:10056000E251FE4FE491EE23C9F0222339F023300B
:1005700001F1A8F4213019F1223029F1F0E0EE0F59
:10058000FF1FEC51FE4FA591B4918FB7F894EC91F9
:10059000611126C030953E233C938FBF08952730CC
:1005A000A9F02830C9F0243049F7809180008F7D70
:1005B00003C0809180008F7780938000DFCF84B567
:1005C0008F7784BDDBCF84B58F7DFBCF8091B0006A
:1005D0008F778093B000D2CF8091B0008F7DF9CF1C
:1005E0003E2BDACFCF93DF9390E0FC01EE5FFD4F1F
:1005F000249182519E4FFC0184918823D1F090E098
:10060000880F991FFC01E454FE4FA591B491FC01A1
:10061000EC51FE4FC591D49161110EC09FB7F89473
:100620008C91E22FE0958E238C932881E223E8833E
:100630009FBFDF91CF9108958FB7F894EC91E22B93
:10064000EC938FBFF6CF3FB7F8948091F40390916D
:10065000F503A091F603B091F70326B5A89B05C05A
:100660002F3F19F00196A11DB11D3FBFBA2FA92F31
:10067000982F8827BC01CD01620F711D811D911D2E
:1006800042E0660F771F881F991F4A95D1F708959A
:100690008F929F92AF92BF92CF92DF92EF92FF9292
:1006A0006B017C010E9423034B015C01C114D10446
:1006B000E104F104B9F00E942303681979098A0959
:1006C0009B09683E73408105910580F321E0C21AC1
:1006D000D108E108F10888EE880E83E0981EA11C7D
:1006E000B11CE4CFFF90EF90DF90CF90BF90AF9020
:1006F0009F908F90089585ED8093BC008091BC0001
:1007000084FDFCCF1092FE03089520918A03260FEA
:100710003327331F21323105ECF42091FE03FC0115
:1007200090E080E0243069F082E00895A0918A038F
:100730002191AC0146595C4FA40FB52FB11D2C93EC
:100740000196861798F380918A03680F60938A0355
:1007500080E0089581E008950895E0910204809179
:100760000104E81730F4F0E0E65BFC4F808190E094
:1007700008958FEF9FEF08959091020480910104F6
:100780002FEF3FEF981748F4E92FF0E0E65BFC4FBE
:10079000208130E09F5F90930204C9010895809109
:1007A000010490910204891B990B0895CF92DF9266
:1007B000EF92FF920F931F93CF93DF937C01CB01B6
:1007C0008A012091D103222389F0EB016B01C40E31
:1007D000D51ECC15DD0569F06991D701ED91FC912D
:1007E0000190F081E02DC7010995F3CF642F0E949D
:1007F0008503C801DF91CF911F910F91FF90EF907A
:10080000DF90CF900895CF93DF931F92CDB7DEB7DF
:1008100069832091D1032223F9F02091FF03203234
:1008200058F021E030E0FC013383228390E080E047
:100830000F90DF91CF91089580910004E82FF0E0B0
:10084000EE52FC4F998190838F5F809300048093D8
:10085000FF0381E090E0ECCF61E0CE0101960E94C1
:100860008503F7CFCF93FC01C48121E02093D1030E
:10087000C093F203109200041092FF038385682B4B
:100880008DEA94E00E9403049091FF03913208F0F6
:100890003FC08091FE038111FCCF82E08093FE0374
:1008A00081E08093FD038FEF8093D0031092CF03FC
:1008B0009093CE03A2EDB3E0EEEAF3E080E098136C
:1008C0002FC01092AD038091AD03CC0FC82BC09305
:1008D000AD038091FC03813039F51092FC038091C7
:1008E000AD038093BB008091BC0083FDF8CF85EC05
:1008F0008093BC008091FE038230E1F38091D003AD
:100900008F3F31F08091D003803211F08091D0037D
:10091000109200041092FF031092D103CF9108951A
:100920002D9121938F5FCBCF85EEE2CF20910504EF
:10093000309106042817390771F4909103048091CF
:100940000404981741F0E0910304F0E0E65FFC4FE7
:10095000808190E008958FEF9FEF0895EF92FF92CE
:100960000F931F93CF93DF93DC015C96ED90FC9087
:100970005D97E114F10479F481E090E013969C9383
:100980008E93129790E080E0DF91CF911F910F91AD
:10099000FF90EF9008955196ED91FC9152975096EB
:1009A0008C915097982F90950FB75E962C915E97EB
:1009B000122F127021FD6095F8942081112319F1F6
:1009C000282B2083E7012197F1F728E0462F50E0FC
:1009D000308160FF1AC0382B3083E7012197F1F78F
:1009E000BA0175956795215089F7112381F08081AF
:1009F000892380830FBF5C968D919C910197F1F7BD
:100A000081E090E0C1CF2923DCCF3923E5CF90816D
:100A1000892BEFCF20910504309106042817390760
:100A200071F4809104042091030490E0805C9F4F56
:100A3000821B910960E470E00E940B16089590E01B
:100A400080E00895209105043091060428173907A5
:100A5000B9F49091030480910404981789F0E0910F
:100A60000304F0E0E65FFC4F80812091030430E056
:100A70002F5F3F4F2F7333272093030490E0089597
:100A80008FEF9FEF089590E080E008950F931F93FC
:100A9000CF938C01C62F0E9432046C2F6460C80172
:100AA0000E9432046C2F6B7FC8010E94320483ECD9
:100AB00090E00197F1F7CF911F910F9108950F9357
:100AC0001F93CF93DF938C01D62FC42F607F642BAD
:100AD0000E94460580E1D89FB00111246C2BC8010B
:100AE000DF91CF911F910F910C944605CF93DF9327
:100AF000CDB7DEB728970FB6F894DEBF0FBECDBFD7
:100B000098E0E6E0F1E0DE01119601900D929A95F1
:100B1000E1F79091ED04981708F48FEF90E0880FBB
:100B2000991F21E030E02C0F3D1F820F931FFC0125
:100B30006081606840E084EE94E028960FB6F894F7
:100B4000DEBF0FBECDBFDF91CF910C945F0540E0BB
:100B500061E084EE94E00E945F058BE39FE10197E2
:100B6000F1F7089541E00E945F0581E090E008956B
:100B7000FB0101900020E9F73197AF01461B570BAD
:100B8000DC01ED91FC910280F381E02D0994BC0120
:100B900084EE94E00C94B8050F931F93CF93DF93EA
:100BA000EC010E94B8058C016EE571E0CE010E9457
:100BB000B805800F911FDF91CF911F910F9108957C
:100BC0000F931F93CF93DF93EC010E944B018C0195
:100BD0006EE571E0CE010E94B805800F911FDF9194
:100BE000CF911F910F910895CF93DF932091E2044D
:100BF0003091E304232B89F0FC01C091DE04D091F5
:100C0000DF0460817181CE010E946C18009729F089
:100C10008C1B9D0BDF91CF9108958FEF9FEFFACF43
:100C2000CF93DF93EC0188819981009711F00E94A6
:100C30001617198218821D821C821B821A82DF916C
:100C4000CF910895FC0180819181009711F00C945F
:100C5000161708950F931F93CF93DF93EC018881AC
:100C60009981009759F02A813B812617370730F088
:100C700081E0DF91CF911F910F9108958B016F5FFC
:100C80007F4F0E949F17009759F0998388831B8399
:100C90000A832C813D81232B59F7FC011082E8CF78
:100CA00080E0E7CF0F931F93CF93DF93EC010C818C
:100CB0001D810D5F1F4FB8010E942A06882391F005
:100CC000288139818C819D8161E671E0820F931FBB
:100CD0000E9465181D830C83CE01DF91CF911F9177
:100CE0000F910895CE010E941006F6CFEF92FF9269
:100CF0000F931F93CF93DF93EC017B018A01BA011D
:100D00000E942A0681110BC0CE010E941006CE015E
:100D1000DF91CF911F910F91FF90EF9008951D8368
:100D20000C83B701888199810E946518F0CFFB017F
:100D300001900020E9F73197AF01461B570B0C9447
:100D40007606EF92FF920F931F93CF93DF93CDB769
:100D5000DEB7A1970FB6F894DEBF0FBECDBF7C0102
:100D6000CB01BA01F701118210821382128215821F
:100D700014828E010F5F1F4F22E044E00E94E410B6
:100D8000009789F0BC01C7010E949706A1960FB693
:100D9000F894DEBF0FBECDBFDF91CF911F910F91B1
:100DA000FF90EF900895C7010E941006EFCFCF93F8
:100DB000DF93EC01FB018617970749F06081718191
:100DC0006115710541F0448155810E947606CE017E
:100DD000DF91CF9108950E941006F9CFFC01118296
:100DE00010821382128215821482FB01019000206E
:100DF000E9F73197AF01461B570B0C947606CF925B
:100E0000DF92EF92FF929C01990F440B550B60E02B
:100E100070E48CE990E00E941F16CA01B90160518C
:100E20007742810991090E9477130E948E156B0108
:100E30007C0129E537E44CEB53E30E94B213A70190
:100E400096010E94B21323E73FE745E759E30E946A
:100E5000A814A70196010E94B2132BEE3FEF43E9BD
:100E60005AE30E94A8149B01AC0160E070E080E8A6
:100E70009FE30E94141523E333E948E853E40E94FA
:100E8000A714FF90EF90DF90CF9008951F920F92DC
:100E90000FB60F9211242F933F934F935F936F934D
:100EA0007F938F939F93AF93BF93EF93FF9380E1D3
:100EB00094E00E941702FF91EF91BF91AF919F9133
:100EC0008F917F916F915F914F913F912F910F90F3
:100ED0000FBE0F901F9018951F920F920FB60F9292
:100EE00011242F938F939F93EF93FF93E09120040E
:100EF000F09121048081E0912604F091270482FD85
:100F00001BC09081809129048F5F8F7320912A04E8
:100F1000821741F0E0912904F0E0E05FFB4F958FEC
:100F200080932904FF91EF919F918F912F910F90C2
:100F30000FBE0F901F9018958081F4CF1F920F92D3
:100F40000FB60F9211242F933F938F939F93AF93DC
:100F5000BF9380910C0490910D04A0910E04B09168
:100F60000F043091F30323E0230F2D3758F501963A
:100F7000A11DB11D2093F30380930C0490930D04E5
:100F8000A0930E04B0930F048091F4039091F503A5
:100F9000A091F603B091F7030196A11DB11D8093B6
:100FA000F4039093F503A093F603B093F703BF9176
:100FB000AF919F918F913F912F910F900FBE0F9006
:100FC0001F90189526E8230F0296A11DB11DD2CFC0
:100FD0001F920F920FB60F9211242F933F934F93AE
:100FE0005F936F937F938F939F93AF93BF93EF9391
:100FF000FF938091B900887F803609F44AC0F0F5EC
:10100000883209F4A7C018F5803109F49BC0B8F400
:10101000882309F4F9C0883009F494C0FF91EF9156
:10102000BF91AF919F918F917F916F915F914F9100
:101030003F912F910F900FBE0F901F901895883100
:1010400009F488C0803251F78093D00314C08034F3
:1010500009F49DC040F48033B9F38833F9F68093E6
:10106000D00385ECB0C0803509F485C0883509F41B
:1010700096C0883499F60E947B03D0CF883909F452
:101080008CC038F5883729F050F4883611F0803755
:1010900029F683E08093FE031092AC0357C0883892
:1010A00009F47BC0803919F0803809F0B7CF8091FE
:1010B000AC03803208F071C0E091AC0381E08E0F88
:1010C0008093AC038091BB00F0E0E457FC4F808339
:1010D0003DC0803B39F0E0F4803A09F479C0883AA9
:1010E00009F09CCF84E08093FE0310928B03109252
:1010F0008A03E091FA03F091FB03099580918A033A
:1011000081110FC081E080938A0310926A0309C0A5
:10111000803C09F4A6CF883C09F4A3CF883B09F0B2
:101120007DCFE0918B0381E08E0F80938B03F0E005
:10113000E659FC4F80818093BB0090918B03809196
:101140008A0329C08091AD038093BB0085EC809316
:10115000BC0064CF9091CF038091CE03981758F5CF
:10116000E091CF0381E08E0F8093CF03F0E0E25552
:10117000FC4F8081E9CFE091CF0381E08E0F809317
:10118000CF038091BB00F0E0E255FC4F808390914B
:10119000CF038091CE039817C8F285E8D8CFE091AD
:1011A000CF0381E08E0F8093CF038091BB00F0E0EE
:1011B000E255FC4F80838091FD0381115CCF81E07B
:1011C0008093FC0384EA8093BC001092FE0326CF38
:1011D00085EC8093BC001092FE038091AC038032BA
:1011E00030F4E091AC03F0E0E457FC4F10826091E2
:1011F000AC0370E0E091F803F091F9038CE893E020
:1012000009951092AC030ACF1092D00334CF1F92ED
:101210000F920FB60F9211242F933F934F935F932A
:101220006F937F938F939F93AF93BF93EF93FF93AE
:10123000E0910504F0910604309749F0A685B78542
:101240008585968D91FF14C09C918923A1F4FF910F
:10125000EF91BF91AF919F918F917F916F915F912E
:101260004F913F912F910F900FBE0F901F901895A7
:101270009C91892361F7A389B4899C918589809584
:1012800089238C93868997890197F1F7608D718DF9
:10129000A685B785558538E020E0CB010197F1F7A9
:1012A000822F90E095958795282F4C91452309F042
:1012B0002068315091F7868D81FD2095809104043E
:1012C00090E001968F73992730910304381799F0B5
:1012D000A0910404B0E0A65FBC4F2C93809304045B
:1012E000828D938D0197F1F7A389B4898C919589AB
:1012F000892B8C93ACCF868D8160868FF1CFCF9276
:10130000DF92EF92FF92109213041092120498EE63
:10131000C92E93E0D92EE12CF12CC0921404D09266
:101320001504E0921604F092170480E291E0909385
:1013300011048093100485EC90E090931D04809339
:101340001C0484EC90E090931F0480931E0480ECB6
:1013500090E0909321048093200481EC90E090939E
:1013600023048093220482EC90E0909325048093E0
:10137000240486EC90E09093270480932604109236
:10138000290410922A0410922B0410922C0410921B
:10139000B0041092AF04C092B104D092B204E092B3
:1013A000B304F092B40482E391E09093AE0480938E
:1013B000AD041092E7041092E60486E591E0909364
:1013C000E5048093E40487E28093E80480E180935D
:1013D000EC0482E08093ED041092EE0488E08093A8
:1013E000EF0460E671E08EED94E00E94EE0660E6A8
:1013F00071E088ED94E00E94EE061092BC04109219
:10140000BB04C092BD04D092BE04E092BF04F0922F
:10141000C00484E491E09093BA048093B9041092DC
:10142000D0041092CF041092D2041092D1041092E2
:10143000D4041092D3041092D6041092D504609173
:10144000D7046E7F6D7F6093D7046695617081E0ED
:10145000682783E00E94A60261E083E00E94F20216
:10146000E5E0F2E0E491E093C904E1EFF1E0E4911A
:10147000F0E0EE0FFF1FEC51FE4F85919491909399
:10148000CB048093CA0460E082E00E94F202809163
:10149000D70481FD04C061E082E00E94A60282E0E0
:1014A0008093C504E4E0F2E0E491E093C604E0EF49
:1014B000F1E0E491F0E0EE0FFF1FE652FE4F859160
:1014C00094919093C8048093C704FF90EF90DF90AD
:1014D000CF900895CF93DF93CDB7DEB72C970FB69B
:1014E000F894DEBF0FBECDBF789484B5826084BD12
:1014F00084B5816084BD85B5826085BD85B5816018
:1015000085BD80916E00816080936E001092810095
:101510008091810082608093810080918100816050
:101520008093810080918000816080938000809111
:10153000B10084608093B1008091B000816080939D
:10154000B00080917A00846080937A0080917A0064
:10155000826080937A0080917A00816080937A0023
:1015600080917A00806880937A001092C10012E026
:1015700061E0812F0E94F2021F5F1B30C9F761E01A
:101580008DE00E94F2021092020410920104109267
:1015900000041092FF031092FE0381E08093FD038C
:1015A0001092FC0361E082E10E94A60261E083E107
:1015B0000E94A6028091B9008E7F8093B90080912D
:1015C000B9008D7F8093B90088E48093B80085E4EA
:1015D0008093BC0088E491E09093FB038093FA032E
:1015E00089E491E09093F9038093F8031092E90461
:1015F0008091ED04823018F098E09093E904909186
:10160000EE04992339F0813029F48091E904846053
:101610008093E90462E370E080E090E00E94480378
:101620006091EF0484EE94E00E94320468EE73E06F
:1016300080E090E00E94480360E384EE94E00E9422
:1016400046050BE416E4C8010197F1F760E384EE68
:1016500094E00E944605C8010197F1F760E384EE2B
:1016600094E00E94460583E592E00197F1F760E27D
:1016700084EE94E00E9446056091E904606240E0D7
:1016800084EE94E00E945F0584E08093EA0440E0E9
:101690006CE084EE94E00E945F050E94A70512E0D2
:1016A0001093EB0440E066E084EE94E00E945F0556
:1016B00040E062E084EE94E00E945F058BE39FE1EE
:1016C0000197F1F788E08093EF0460E084EE94E006
:1016D0000E943204E0912004F09121041083E091F3
:1016E0001C04F0911D041082E0911E04F0911F046F
:1016F0008FEC808310922804E0912404F09125045B
:1017000086E08083E0912204F0912304808180614F
:101710008083E0912204F09123048081886080839B
:10172000E0912204F0912304808180688083E0911D
:101730002204F091230480818F7D80831092D40451
:101740001092D3041092D2041092D1041092D004BB
:101750001092CF048DE991E09093D6048093D50444
:101760009091C504963108F047C02DEB30E03093DE
:10177000D0042093CF042BE931E03093D20420939E
:10178000D1042CE231E03093D4042093D30420918F
:10179000680084E0983048F031E09E3008F430E092
:1017A00081E001C0880F3A95EAF7822B80936800A8
:1017B0002DE630E0983050F02BE630E09E3030F0EF
:1017C0002CE630E0963110F030E020E03093CD048C
:1017D0002093CC04292F30E0983008F0ACC081E091
:1017E00001C0880F9A95EAF78093CE048091D504C2
:1017F0009091D6040197F1F78091D3049091D4048D
:10180000892B49F1E0910504F091060424E0E93BBD
:10181000F20709F1309739F0A389B4899C91858941
:10182000809589238C938091D7048E7F8093D704F1
:10183000109204041092030489EB94E09093060440
:1018400080930504E091CC04F091CD0480819091C7
:10185000CE04892B808361E08DE00E94A6020E9465
:1018600037010E94FF06AB01BC01CE0107960E9422
:10187000A1061A8219821C821B821E821D82BE0151
:10188000695F7F4FCE0101960E94D706CE01019677
:101890000E945206BC0188ED94E00E94D706CE015A
:1018A00001960E942206CE0107960E94220680E041
:1018B0000E94760568ED74E084EE94E00E944B018E
:1018C0000CE111E050E0E52E50E0F52EBB24B3947E
:1018D00080E194E00E94F701892B09F475C06AE069
:1018E00070E080E090E00E94480360E671E0CE0185
:1018F00001960E94EE060E94A90197FD29C08F83E0
:101900001886CD80DE808FEFC81AD80AB601CE01C6
:1019100001960E942A06882371F329813A818D81DC
:101920009E81BE01695F7F4F820F931F0E946518E1
:10193000DE82CD82E0CF9E3040F42850310981E034
:1019400001C0880F2A95EAF74FCF2E503109F7CF03
:101950008091DE049091DF040097F9F069817A812B
:1019600061157105C1F04091E0045091E1042D81B1
:101970003E814217530778F00E9465188D819E8141
:101980009093E3048093E2041E821D82CE010196AF
:101990000E9422069DCF0E94161789819A819093FA
:1019A000DF048093DE048B819C819093E10480931B
:1019B000E0048D819E819093E3048093E2041A8277
:1019C00019821C821B82E0CF8091E2049091E30493
:1019D000892B09F472C06EE571E080E194E00E9409
:1019E000B80580910B04882309F4B9C065E671E05D
:1019F000CE0101960E94EE06CE0101960E94F405EA
:101A00006C01CE0101960E942206D7FC62C06BE6F3
:101A100071E080E194E00E94CC056BE671E089EB17
:101A200094E00E94CC050E94A70580E00E94760504
:101A300068ED74E084EE94E00E944B0181E00E9426
:101A4000760580E891E00E94C7054EE0C42E41E093
:101A5000D42EF6017080F2E0CF0ED11C61E0872D0C
:101A60000E94A60264EF71E080E090E00E944803CB
:101A700060E0872D0E94A6022CE1C21621E0D2066A
:101A800041F738E1C32E31E0D32EF601708061E0DA
:101A9000872D0E94A60264EF71E080E090E00E9432
:101AA000480360E0872D0E94A602F2E0CF1AD10819
:101AB0002EE0C21621E0D20641F7E114F10409F448
:101AC00007CF0E940302882309F402CF0E9400007E
:101AD000FFCE66E073E0CE0101960E94EE06CE01D5
:101AE00001960E94F4056C01CE0101960E94220627
:101AF000D7FCCDC02EE0C22E21E0D22EF60180818F
:101B0000F2E0CF0ED11C60E00E94A6020C151D056C
:101B1000A9F761E971E080E194E00E94CC0561E9F8
:101B200071E089EB94E00E94CC050E94A70580E05B
:101B30000E94760568ED74E084EE94E00E944B010B
:101B400081E00E94760584EA91E00E94C70560E684
:101B500071E08EED94E00E94970610920B04809144
:101B60000A048823F1F10E94A70580E00E9476050F
:101B700068ED74E084EE94E00E944B0164EB71E048
:101B8000CE0101960E94EE06CE0101960E94F40558
:101B90006C01CE0101960E942206D7FC7FC060E056
:101BA0008DE00E94A6026DEB71E080E194E00E945E
:101BB000CC050E94A70580E00E94760568ED74E0E0
:101BC00084EE94E00E944B0181E00E9476058DEB4B
:101BD00091E00E94C7056DEB71E089EB94E00E94F3
:101BE000CC0580910904882341F16EED74E080E119
:101BF00094E00E94E0056EED74E089EB94E00E94B1
:101C0000E0050E94A70580E00E94760568ED74E07B
:101C100084EE94E00E944B0181E00E9476056EED17
:101C200074E084EE94E00E944B0160E671E08EED7A
:101C300094E00E9497061092090460EE71E0CE01D4
:101C400001960E94EE06CE0101960E94F4056C01F9
:101C5000CE0101960E942206D7FC63C0B0920B040D
:101C600010920804109207040E94A70580E00E94C9
:101C7000760568ED74E084EE94E00E944B0181E00B
:101C80000E9476058CEE91E00E94C70515C160E6C2
:101C900071E08EED94E00E94970661CF6BEC71E0ED
:101CA000CE0101960E94EE06CE0101960E94F40537
:101CB0006C01CE0101960E942206D7FC2BC061E088
:101CC0008DE00E94A60262ED71E080E194E00E9446
:101CD000CC050E94A70580E00E94760568ED74E0BF
:101CE00084EE94E00E944B0181E00E94760582ED33
:101CF00091E00E94C70562ED71E089EB94E00E94DB
:101D0000CC0560E671E08EED94E00E94970610929B
:101D10000A0467CF60E671E08EED94E00E949706BA
:101D200060CF69EF71E0CE0101960E94EE06CE0110
:101D300001960E94F4056C01CE0101960E942206D4
:101D4000D7FC17C0B0920A0410920804109207043E
:101D50000E94A70580E00E94760568ED74E084EE9D
:101D600094E00E944B0181E00E94760589EF91E0AA
:101D70008BCF6FEF71E0CE0101960E94EE06CE018F
:101D800001960E94F4056C01CE0101960E94220684
:101D9000D7FC17C0B09209041092080410920704EF
:101DA0000E94A70580E00E94760568ED74E084EE4D
:101DB00094E00E944B0181E00E9476058FEF91E054
:101DC00063CF65E072E0CE0101960E94EE06CE017F
:101DD00001960E94F4056C01CE0101960E94220634
:101DE000D7FC71C010920804109207040E943701BA
:101DF0000E94FF062B013C01BC01A201CE0101960D
:101E00000E94A10618861F821A8619861C861B86C8
:101E1000BE016F5F7F4FCE0107960E94D706CE01AD
:101E200007960E945206BC0188ED94E00E94D706F6
:101E3000CE0107960E942206CE0101960E9422063C
:101E400068ED74E080E194E00E94E0050E94A7053F
:101E500080E00E94760568ED74E084EE94E00E94D4
:101E60004B0181E00E94760585E092E00E94C70563
:101E7000B301A201CE0101960E94A10618861F821D
:101E80001A8619861C861B86BE016F5F7F4FCE01A6
:101E900007960E94D706CE0107960E945206BC0103
:101EA00089EB94E00E94E005CE0107960E9422068D
:101EB000CE0101960E94220660E671E08EED94E06C
:101EC0000E949706FACD80910804882309F495C0F2
:101ED0006EE072E0CE0101960E94EE06CE01019600
:101EE0000E94F4056C01CE0101960E942206D7FEE5
:101EF00084C08091DE049091DF04009789F00E94F5
:101F000002116B0121E0C21AD10887E0C816D10482
:101F100058F068E172E080E194E00E94CC05CCCFFB
:101F200060E070E0CB01EDCFF601EE0FFF1FE25F46
:101F3000FE4F61E080810E94A60260E671E0CE0162
:101F400001960E94EE060E94A70580E00E94760599
:101F500068ED74E084EE94E00E944B0181E00E9401
:101F600076056CE672E093E0C916D10411F178F4BD
:101F700064E572E0F1E0CF16D104D9F060E672E0DA
:101F800022E0C216D104A9F068E472E012C064E84D
:101F900072E085E0C816D10461F068E772E095E070
:101FA000C916D10430F060E972E0E6E0CE16D10443
:101FB00059F7CE0101960E949706BE016F5F7F4FD1
:101FC00080E194E00E94E005BE016F5F7F4F89EBE6
:101FD00094E00E94E005BE016F5F7F4F84EE94E0C5
:101FE0000E944B0160E671E08EED94E00E9497063E
:101FF000CE0101960E94220660CD809107048823BD
:1020000009F473C06CE972E0CE0101960E94EE06FD
:10201000CE0101960E94F4056C01CE0101960E944A
:102020002206D7FE62C08091DE049091DF04009703
:1020300009F441C00E9402116B01F1E0CF1AD108EE
:1020400027E0C216D10408F064CFF601EE0FFF1F9F
:10205000E25FFE4F60E080810E94A60260E671E0D0
:10206000CE0101960E94EE060E94A70580E00E9424
:10207000760568ED74E084EE94E00E944B0181E007
:102080000E94760567EC72E083E0C816D10409F47B
:1020900090CFA8F46FEA72E0E1E0CE16D10409F423
:1020A00088CF6BEB72E0F2E0CF16D10409F481CF58
:1020B00063EA72E07ECF60E070E0CB01BDCF6FEDF0
:1020C00072E025E0C216D10409F473CF63ED72E02B
:1020D00085E0C816D10408F46CCF6BEE72E096E090
:1020E000C916D10409F465CFE3CF6CE972E0CE01E3
:1020F00001960E94EE06CE0101960E94F4056C0145
:10210000CE0101960E942206D7FC15C0B0920804A9
:10211000109207040E94A70580E00E94760568EDF2
:1021200074E084EE94E00E944B0181E00E94760509
:1021300087EF92E0A9CD6EE072E0CE0101960E9499
:10214000EE06CE0101960E94F4056C01CE010196C7
:102150000E942206D7FCB0CEB09207041092080469
:102160000E94A70580E00E94760568ED74E084EE89
:1021700094E00E944B0181E00E9476058FEF92E08F
:1021800083CD84E491E09093BA048093B904809164
:10219000050490910604895B944071F4E091CC04AD
:1021A000F091CD0490818091CE0480958923808325
:1021B000109206041092050488ED94E00E94220615
:1021C0008EED94E00C942206EF920F931F93CF9321
:1021D000DF93E80134E047FD34E1042E000C550B99
:1021E00057FF03C0519541955109E32E022F242F2B
:1021F000AE010E943E11CE01DF91CF911F910F9150
:10220000EF9008951F93FC0199278827BC01E8945B
:1022100011911032E9F3193010F01E30C8F31B325F
:1022200051F01D3249F4689406C00E942911610FD3
:10223000711D811D911D119110531A30B0F33EF4A0
:1022400090958095709561957F4F8F4F9F4F1F910F
:102250000895592F482F372F262F660F771F881F75
:10226000991F660F771F881F991F620F731F841FA6
:10227000951F660F771F881F991F0895A9E0B0E08A
:10228000E4E4F1E10C9476146A01F22EB02E102FE2
:10229000FBE3AF2EA01608F41BE31F5F012F27E01E
:1022A000AE014F5F5F4F0E949D12BC018981982F44
:1022B0009970913009F43FC09BE2E1FC04C09E2D6F
:1022C0009170E0FC3AC05E2D5071E82FE87083FFFA
:1022D00046C084E0911101C083E0EF2DE81B8F150B
:1022E00008F0E0E0D6018E2F20E2552351F199232A
:1022F00029F0D6019C93C60101966C0196012D5FD1
:102300003F4FE2FE24C08EE4D6018C9391E41196F7
:102310009C93119712968C93D9018E2F90E2811184
:102320001BC0E20FF32FF11D10828EEF9FEF299655
:10233000ECE00C9492149DE2C6CF90E2C4CF2D93B2
:1023400081508111FCCFCE0ED11CE0E0D0CF8EE6C3
:10235000D6018C9391E6DBCF9D938150E0CF482F3F
:10236000447082FF3DC084E0911101C083E08F156D
:1023700010F4EF2DE81BD6018E2F20E2552309F132
:10238000992329F0D6019C93C60101966C01960110
:102390002D5F3F4FE2FE1BC089E4D6018C938EE493
:1023A00011968C93119786E412968C93D9018E2FF7
:1023B00090E2882309F4B5CF9D938150FACF2D93F5
:1023C00081508111FCCFCE0ED11CE0E0D9CF89E63F
:1023D000D6018C938EE611968C93119786E6E4CF06
:1023E0009B0177FF02C030E020E0A1E0B0E0911156
:1023F00002C0B0E0A0E0F9013196AE0FBF1F8B2CF8
:10240000912CBB2009F461C05401EFEFAE1ABE0A53
:10241000AA0DBB1DFA161B0619F014F04F2D4A1B0E
:10242000511188C0E3FC59C07601A42FB0E2A1117C
:102430004FC0C40ED11C992309F45BC040E0D60103
:102440001196F60190836D01552309F448C0012FC0
:10245000060F9A81582F507184FF03C0913309F4FD
:10246000015010160CF047C0093008F008E0EEE209
:10247000FE2E5B01A01AB108850191948194910808
:102480002F3F320729F4D601FC92F60131966F01F5
:102490006217730794F1021713077CF5DB01A21B87
:1024A000B30BAA24A394B12CAC0EBD1EAA0DBB1D68
:1024B00011968C9121503109D601119628153905B4
:1024C000F4F0F60180836D01DBCFB12CA12CA0CFFD
:1024D000F701B1937F01A150AACF9111B0CFD601DE
:1024E000942F50E302C05D9391509111FCCFC40E24
:1024F000D11C40E0ACCF01E0BACF80E3DBCF621764
:10250000730731F4963388F4953311F4552369F049
:10251000F6018083FD01842F90E2811108C0A40F91
:10252000B11D1C9290E080E002CF81E3F1CF919346
:102530008150F3CF911183CF8ACF283008F027E064
:102540003327DA01990F311D87FD916000966105EF
:10255000710539F432602E5F3D9330E32A95E1F73F
:1025600008959F3F30F080387105610509F03C5FA8
:102570003C5F3D93913008F08068911DDF93CF93CD
:102580001F930F93FF92EF92192F987F9695E92F43
:1025900096959695E90FFF27E45EFE4F992733271E
:1025A000EE24FF24A701E70105900894079428F47E
:1025B000360FE71EF81E491F511D660F771F881F33
:1025C000991F0694A1F70590079428F4E70EF81ECA
:1025D000491F561FC11D770F881F991F661F06943C
:1025E000A1F70590079428F4F80E491F561FC71F3E
:1025F000D11D880F991F661F771F0694A1F70590BC
:10260000079420F4490F561FC71FD81F990F661F44
:10261000771F881F0694A9F784911095177041F0D1
:10262000D695C79557954795F794E7941A95C1F7AE
:10263000E2ECF0E0689415901591359165919591D3
:1026400005907FE27395E118F10A430B560BC90B15
:10265000D009C0F7E10CF11E431F561FC91FD01D42
:102660007EF4703311F48A95E6CFE894015030F08F
:10267000080F0AF40027021708F4202F2395022FD1
:102680007A3328F079E37D932A95E9F710C07D939A
:102690002A9589F606949795679537951795179417
:1026A000E118F10A430B560BC90BD00998F023959A
:1026B0007E9173957A3308F070E37C932013B8F71A
:1026C0007E9170617D9330F0839571E37D9370E32B
:1026D0002A95E1F71124EF90FF900F911F91CF9170
:1026E000DF91992787FD90950895E89409C097FB9D
:1026F0003EF490958095709561957F4F8F4F9F4FD9
:102700009923A9F0F92F96E9BB279395F69587951C
:1027100077956795B795F111F8CFFAF4BB0F11F4DF
:1027200060FF1BC06F5F7F4F8F4F9F4F16C0882386
:1027300011F096E911C0772321F09EE8872F762FBC
:1027400005C0662371F096E8862F70E060E02AF0FD
:102750009A95660F771F881FDAF7880F96958795E9
:1027600097F908950E94C5130C9436140E942814FA
:1027700038F00E942F1420F0952311F00C941F14B0
:102780000C94251411240C946A140E94471470F3BD
:10279000959FC1F3950F50E0551F629FF001729F06
:1027A000BB27F00DB11D639FAA27F00DB11DAA1F15
:1027B000649F6627B00DA11D661F829F2227B00D62
:1027C000A11D621F739FB00DA11D621F839FA00DED
:1027D000611D221F749F3327A00D611D231F849F3D
:1027E000600D211D822F762F6A2F11249F57504094
:1027F0009AF0F1F088234AF0EE0FFF1FBB1F661F0F
:10280000771F881F91505040A9F79E3F510580F0D7
:102810000C941F140C946A145F3FE4F3983ED4F3B5
:10282000869577956795B795F795E7959F5FC1F77B
:10283000FE2B880F911D9695879597F9089597F926
:102840009F6780E870E060E008959FEF80EC089556
:1028500000240A941616170618060906089500247F
:102860000A9412161306140605060895092E0394F9
:10287000000C11F4882352F0BB0F40F4BF2B11F46D
:1028800060FF04C06F5F7F4F8F4F9F4F089557FDCC
:102890009058440F551F59F05F3F71F04795880FCE
:1028A00097FB991F61F09F3F79F087950895121665
:1028B00013061406551FF2CF4695F1DF08C0161611
:1028C00017061806991FF1CF8695710561050894C2
:1028D0000895E894BB2766277727CB0197F90895D9
:1028E0002F923F924F925F926F927F928F929F9220
:1028F000AF92BF92CF92DF92EF92FF920F931F930E
:10290000CF93DF93CDB7DEB7CA1BDB0B0FB6F894BE
:10291000DEBF0FBECDBF09942A88398848885F84FE
:102920006E847D848C849B84AA84B984C884DF806F
:10293000EE80FD800C811B81AA81B981CE0FD11D53
:102940000FB6F894DEBF0FBECDBFED01089550580D
:10295000BB27AA270E94BF140C9436140E94281487
:1029600038F00E942F1420F039F49F3F19F426F418
:102970000C9425140EF4E095E7FB0C941F14E92F3A
:102980000E94471458F3BA17620773078407950724
:1029900020F079F4A6F50C9469140EF4E0950B2E52
:1029A000BA2FA02D0B01B90190010C01CA01A001A1
:1029B0001124FF27591B99F0593F50F4503E68F1FC
:1029C0001A16F040A22F232F342F4427585FF3CF3D
:1029D000469537952795A795F0405395C9F77EF40E
:1029E0001F16BA0B620B730B840BBAF09150A1F057
:1029F000FF0FBB1F661F771F881FC2F70EC0BA0FDD
:102A0000621F731F841F48F4879577956795B79564
:102A1000F7959E3F08F0B0CF9395880F08F099275F
:102A2000EE0F9795879508950E9428150C943614FB
:102A30000E942F1458F00E94281440F029F45F3FA0
:102A400029F00C941F1451110C946A140C94251441
:102A50000E94471468F39923B1F3552391F3951B12
:102A6000550BBB27AA2762177307840738F09F5FAF
:102A70005F4F220F331F441FAA1FA9F335D00E2E1C
:102A80003AF0E0E832D091505040E695001CCAF789
:102A90002BD0FE2F29D0660F771F881FBB1F26174C
:102AA00037074807AB07B0E809F0BB0B802DBF0123
:102AB000FF2793585F4F3AF09E3F510578F00C94F2
:102AC0001F140C946A145F3FE4F3983ED4F3869588
:102AD00077956795B795F7959F5FC9F7880F911D13
:102AE0009695879597F90895E1E0660F771F881FFF
:102AF000BB1F621773078407BA0720F0621B730BB2
:102B0000840BBA0BEE1F88F7E095089516F00C942D
:102B1000D6150C94251468940C941F140E944F141D
:102B2000A8F39923C1F3AEF3DF93CF931F930F93D1
:102B3000FF92C92FDD2788232AF02197660F771F80
:102B4000881FDAF720E030E040E85FEB9FE3883948
:102B500020F0803E38F021968F770E94A814E8E696
:102B6000F0E004C00E94A814E5E9F0E00E94E4153A
:102B70008B01BE01EC01FB2E6F5771097595771F14
:102B8000880B990B0E94771328E132E741E35FE35A
:102B90000E94C513AF2D9801AE01FF900F911F91B8
:102BA000CF91DF910E94BF140C9436149F3F31F0F7
:102BB000915020F4879577956795B795880F911D6B
:102BC0009695879597F90895DF93CF931F930F9369
:102BD000FF92EF92DF927B018C01689406C0DA2E9F
:102BE000EF010E94C513FE01E894A591259135914E
:102BF00045915591A6F3EF010E94BF14FE01970184
:102C0000A801DA9469F7DF90EF90FF900F911F9180
:102C1000CF91DF91089597FB072E16F4009407D00B
:102C200077FD09D00E943E1607FC05D03EF4909532
:102C300081959F4F0895709561957F4F0895052E5A
:102C400097FB1EF400940E94361657FD07D00E9491
:102C5000521607FC03D04EF40C943616509540954E
:102C6000309521953F4F4F4F5F4F08959095809538
:102C7000709561957F4F8F4F9F4F0895AA1BBB1B87
:102C800051E107C0AA1FBB1FA617B70710F0A61B6C
:102C9000B70B881F991F5A95A9F780959095BC018D
:102CA000CD010895A1E21A2EAA1BBB1BFD010DC088
:102CB000AA1FBB1FEE1FFF1FA217B307E407F507EC
:102CC00020F0A21BB30BE40BF50B661F771F881FC8
:102CD000991F1A9469F760957095809590959B015E
:102CE000AC01BD01CF010895EE0FFF1F0590F491D7
:102CF000E02D09940F931F93CF93DF9382309105BA
:102D000010F482E090E0E091F204F091F30430E0FE
:102D100020E0B0E0A0E0309799F42115310509F4E6
:102D20004AC0281B390B24303105D8F58A819B8194
:102D30006115710589F1FB0193838283FE0111C046
:102D4000408151810281138148175907E0F04817EB
:102D5000590799F4109761F012960C9312971396F5
:102D60001C933296CF01DF91CF911F910F9108955F
:102D70000093F2041093F304F4CF2115310551F0C0
:102D80004217530738F0A901DB019A01BD01DF01A9
:102D9000F801C1CFEF01F9CF9093F3048093F204CF
:102DA000CDCFFE01E20FF31F8193919322503109A1
:102DB00039832883D7CF2091F0043091F104232B5D
:102DC00041F420910201309103013093F1042093EA
:102DD000F00420910001309101012115310541F4E9
:102DE0002DB73EB74091040150910501241B350BCE
:102DF000E091F004F091F104E217F307A0F42E1B28
:102E00003F0B2817390778F0AC014E5F5F4F24174E
:102E1000350748F04E0F5F1F5093F1044093F004C4
:102E2000819391939FCFF0E0E0E09CCFCF93DF932D
:102E30000097E9F0FC01329713821282A091F2040C
:102E4000B091F304ED0130E020E01097A1F420816F
:102E50003181820F931F2091F0043091F1042817E3
:102E6000390709F061C0F093F104E093F004DF91B9
:102E7000CF910895EA01CE17DF07E8F54A815B811B
:102E80009E0141155105B1F7E901FB83EA834991A0
:102E90005991C40FD51FEC17FD0761F48081918112
:102EA0000296840F951FE90199838883828193811B
:102EB0009B838A83F0E0E0E012968D919C911397BA
:102EC0000097B9F52D913C911197CD010296820F93
:102ED000931F2091F0043091F1042817390739F637
:102EE000309751F51092F3041092F204B093F1046C
:102EF000A093F004BCCFD383C28340815181840F5F
:102F0000951FC817D90761F44E5F5F4F888199817B
:102F1000480F591F518340838A819B819383828309
:102F20002115310509F0B0CFF093F304E093F204DA
:102F30009ECFFD01DC01C0CF13821282D7CFB0E05B
:102F4000A0E0E5EAF7E10C9472148C01009751F4CB
:102F5000CB010E947A168C01C801CDB7DEB7E0E143
:102F60000C948E14FC01E60FF71F9C0122503109CE
:102F7000E217F30708F49DC0D901CD91DC911197B8
:102F8000C617D70798F0C530D10530F3CE010497A6
:102F90008617970708F3C61BD70B2297C193D193C7
:102FA0006D937C93CF010E941617D6CF5B01AC1AAC
:102FB000BD0A4C018C0E9D1EA091F204B091F30449
:102FC000512C412CF12CE12C109731F58091F0041B
:102FD0009091F1048815990509F05CC046165706D2
:102FE00008F058C08091000190910101009741F4D0
:102FF0008DB79EB74091040150910501841B950B3C
:10300000E817F90708F055C0F093F104E093F004D5
:10301000F90171836083A0CF8D919C9111971296D5
:103020006C90129713967C901397A815B90559F5D3
:103030006C0142E0C40ED11CCA14DB0420F1AC01C7
:103040004A195B09DA011296159780F06282738241
:1030500051834083D9016D937C93E114F10471F0A5
:10306000D7011396FC93EE93129776CF22968C0F8E
:103070009D1FF90191838083F301EFCFF093F30457
:10308000E093F20469CF4816590608F42C017D013B
:10309000D3019ACFCB010E947A167C01009749F0A8
:1030A000AE01B8010E945C18C8010E941617870182
:1030B00053CF10E000E050CFFB01DC0102C00190D3
:1030C0000D9241505040D8F70895FB01DC0101906A
:1030D0000D920020E1F70895FB0151915523A9F0CD
:1030E000BF01DC014D9145174111E1F759F4CD01C4
:1030F0000190002049F04D9140154111C9F3FB01A9
:103100004111EFCF81E090E00197089511E0CCE00C
:10311000D1E004C0FE010E9474162196CD30D10783
:06312000C9F7F894FFCF8F
:103126000000F40480000000400014005400040075
:10313600050006000700080009000A00000000005C
:103146003902590186018602F7019501E90100005D
:1031560000000304D6034305AC03CF03BC03AD0351
:1031660000000000AE0459014305AC030A05220520
:10317600960400000000B205590143054A010D0AF4
:1031860000C2B043006261736C6100597572757953
:10319600656E204973696B204261736C61646900D6
:1031A6005975727579656E492E4261736C616469F1
:1031B600005975727579656E204973696B2044757F
:1031C600726475005975727579656E20492E44755D
:1031D6007264750063616C6973746972004D6F7413
:1031E6006F722043616C69737469006475726475EB
:1031F60072004D6F746F722044757275796F72002C
:103206007975727579656E6973696B007975727512
:1032160079656E206973696B006D6F746F72006DEE
:103226006573616A00736963616B6C696B006C65D9
:1032360064736F6E647572004C757466656E2031CA
:103246002064656E2037207965206B616461722089
:103256006F6C616E206269722072616B616D2067AE
:103266006972696E697A2100312E4C656420796134
:103276006E646900322E4C65642079616E64690063
:10328600332E4C65642079616E646900342E4C657A
:10329600642079616E646900352E4C65642079611D
:1032A6006E646900362E4C65642079616E6469002F
:1032B600372E4C65642079616E6469006C656479AB
:1032C600616B00312E4C656420736F6E647500323D
:1032D6002E4C656420736F6E647500332E4C6564E6
:1032E60020736F6E647500342E4C656420736F6EA8
:1032F600647500352E4C656420736F6E64750036F8
:103306002E4C656420736F6E647500372E4C6564B1
:1033160020736F6E6475004C65642059616B004CB8
:0A332600656420536F6E6475720039
:00000001FF
